{
  "contractName": "BaseScheduler",
  "abi": [
    {
      "constant": true,
      "inputs": [],
      "name": "temporalUnit",
      "outputs": [
        {
          "name": "",
          "type": "uint8"
        }
      ],
      "payable": false,
      "stateMutability": "view",
      "type": "function"
    },
    {
      "constant": true,
      "inputs": [],
      "name": "feeRecipient",
      "outputs": [
        {
          "name": "",
          "type": "address"
        }
      ],
      "payable": false,
      "stateMutability": "view",
      "type": "function"
    },
    {
      "constant": true,
      "inputs": [],
      "name": "factoryAddress",
      "outputs": [
        {
          "name": "",
          "type": "address"
        }
      ],
      "payable": false,
      "stateMutability": "view",
      "type": "function"
    },
    {
      "payable": true,
      "stateMutability": "payable",
      "type": "fallback"
    },
    {
      "anonymous": false,
      "inputs": [
        {
          "indexed": false,
          "name": "request",
          "type": "address"
        }
      ],
      "name": "NewRequest",
      "type": "event"
    },
    {
      "constant": false,
      "inputs": [
        {
          "name": "_toAddress",
          "type": "address"
        },
        {
          "name": "_callData",
          "type": "bytes"
        },
        {
          "name": "_uintArgs",
          "type": "uint256[8]"
        }
      ],
      "name": "schedule",
      "outputs": [
        {
          "name": "newRequest",
          "type": "address"
        }
      ],
      "payable": true,
      "stateMutability": "payable",
      "type": "function"
    },
    {
      "constant": true,
      "inputs": [
        {
          "name": "_bounty",
          "type": "uint256"
        },
        {
          "name": "_fee",
          "type": "uint256"
        },
        {
          "name": "_callGas",
          "type": "uint256"
        },
        {
          "name": "_callValue",
          "type": "uint256"
        },
        {
          "name": "_gasPrice",
          "type": "uint256"
        }
      ],
      "name": "computeEndowment",
      "outputs": [
        {
          "name": "",
          "type": "uint256"
        }
      ],
      "payable": false,
      "stateMutability": "pure",
      "type": "function"
    }
  ],
  "bytecode": "0x6060604052341561000f57600080fd5b610c108061001e6000396000f30060606040526004361061006d576000357c0100000000000000000000000000000000000000000000000000000000900463ffffffff1680630801b6541461006f5780633c8a072e1461014d578063469048401461018457806363b6240d146101d9578063966dae0e14610234575b005b61010b600480803573ffffffffffffffffffffffffffffffffffffffff1690602001909190803590602001908201803590602001908080601f01602080910402602001604051908101604052809392919081815260200183838082843782019150505050505091908061010001906008806020026040519081016040528092919082600860200280828437820191505050505091905050610289565b604051808273ffffffffffffffffffffffffffffffffffffffff1673ffffffffffffffffffffffffffffffffffffffff16815260200191505060405180910390f35b341561015857600080fd5b610160610a5b565b6040518082600281111561017057fe5b60ff16815260200191505060405180910390f35b341561018f57600080fd5b610197610a6e565b604051808273ffffffffffffffffffffffffffffffffffffffff1673ffffffffffffffffffffffffffffffffffffffff16815260200191505060405180910390f35b34156101e457600080fd5b61021e6004808035906020019091908035906020019091908035906020019091908035906020019091908035906020019091905050610a94565b6040518082815260200191505060405180910390f35b341561023f57600080fd5b610247610bbf565b604051808273ffffffffffffffffffffffffffffffffffffffff1673ffffffffffffffffffffffffffffffffffffffff16815260200191505060405180910390f35b60008060008060009054906101000a900473ffffffffffffffffffffffffffffffffffffffff16915061031e8460066008811015156102c457fe5b60200201518560056008811015156102d857fe5b60200201518660006008811015156102ec57fe5b602002015187600160088110151561030057fe5b602002015188600460088110151561031457fe5b6020020151610a94565b905080341015151561032f57600080fd5b6001600281111561033c57fe5b600060149054906101000a900460ff16600281111561035757fe5b1415610677578173ffffffffffffffffffffffffffffffffffffffff1663d7ceab4c346060604051908101604052803373ffffffffffffffffffffffffffffffffffffffff1673ffffffffffffffffffffffffffffffffffffffff168152602001600160009054906101000a900473ffffffffffffffffffffffffffffffffffffffff1673ffffffffffffffffffffffffffffffffffffffff1673ffffffffffffffffffffffffffffffffffffffff1681526020018a73ffffffffffffffffffffffffffffffffffffffff1673ffffffffffffffffffffffffffffffffffffffff168152506101806040519081016040528089600560088110151561045857fe5b6020020151815260200189600660088110151561047157fe5b6020020151815260200160ff8152602001600a815260200160108152602001600060149054906101000a900460ff1660028111156104ab57fe5b81526020018960026008811015156104bf57fe5b602002015181526020018960036008811015156104d857fe5b602002015181526020018960006008811015156104f157fe5b6020020151815260200189600160088110151561050a57fe5b6020020151815260200189600460088110151561052357fe5b6020020151815260200189600760088110151561053c57fe5b6020020151815250896040518563ffffffff167c01000000000000000000000000000000000000000000000000000000000281526004018084600360200280838360005b8381101561059b578082015181840152602081019050610580565b5050505090500183600c60200280838360005b838110156105c95780820151818401526020810190506105ae565b5050505090500180602001828103825283818151815260200191508051906020019080838360005b8381101561060c5780820151818401526020810190506105f1565b50505050905090810190601f1680156106395780820380516001836020036101000a031916815260200191505b509450505050506020604051808303818588803b151561065857600080fd5b5af1151561066557600080fd5b505050506040518051905092506109c6565b60028081111561068357fe5b600060149054906101000a900460ff16600281111561069e57fe5b14156109c0578173ffffffffffffffffffffffffffffffffffffffff1663d7ceab4c346060604051908101604052803373ffffffffffffffffffffffffffffffffffffffff1673ffffffffffffffffffffffffffffffffffffffff168152602001600160009054906101000a900473ffffffffffffffffffffffffffffffffffffffff1673ffffffffffffffffffffffffffffffffffffffff1673ffffffffffffffffffffffffffffffffffffffff1681526020018a73ffffffffffffffffffffffffffffffffffffffff1673ffffffffffffffffffffffffffffffffffffffff168152506101806040519081016040528089600560088110151561079f57fe5b602002015181526020018960066008811015156107b857fe5b60200201518152602001610e10815260200160b4815260200161012c8152602001600060149054906101000a900460ff1660028111156107f457fe5b815260200189600260088110151561080857fe5b6020020151815260200189600360088110151561082157fe5b6020020151815260200189600060088110151561083a57fe5b6020020151815260200189600160088110151561085357fe5b6020020151815260200189600460088110151561086c57fe5b6020020151815260200189600760088110151561088557fe5b6020020151815250896040518563ffffffff167c01000000000000000000000000000000000000000000000000000000000281526004018084600360200280838360005b838110156108e45780820151818401526020810190506108c9565b5050505090500183600c60200280838360005b838110156109125780820151818401526020810190506108f7565b5050505090500180602001828103825283818151815260200191508051906020019080838360005b8381101561095557808201518184015260208101905061093a565b50505050905090810190601f1680156109825780820380516001836020036101000a031916815260200191505b509450505050506020604051808303818588803b15156109a157600080fd5b5af115156109ae57600080fd5b505050506040518051905092506109c5565b600080fd5b5b60008373ffffffffffffffffffffffffffffffffffffffff16141515156109ec57600080fd5b7f2749295aa7ffdbd4d16719dc03d592cd081eebd9bb790ceedce201a40675fc0383604051808273ffffffffffffffffffffffffffffffffffffffff1673ffffffffffffffffffffffffffffffffffffffff16815260200191505060405180910390a182925050509392505050565b600060149054906101000a900460ff1681565b600160009054906101000a900473ffffffffffffffffffffffffffffffffffffffff1681565b600073__PaymentLib____________________________635ee345e4878787878773__RequestLib____________________________6345104b166040518163ffffffff167c010000000000000000000000000000000000000000000000000000000002815260040160206040518083038186803b1515610b1457600080fd5b5af41515610b2157600080fd5b505050604051805190506040518763ffffffff167c010000000000000000000000000000000000000000000000000000000002815260040180878152602001868152602001858152602001848152602001838152602001828152602001965050505050505060206040518083038186803b1515610b9d57600080fd5b5af41515610baa57600080fd5b50505060405180519050905095945050505050565b6000809054906101000a900473ffffffffffffffffffffffffffffffffffffffff16815600a165627a7a723058201e0edef30e72bc320fc341f2480af1659f2a4816978d92ac3a629ada0c1873d90029",
  "source": "pragma solidity ^0.4.21;\n\nimport \"contracts/Interface/RequestFactoryInterface.sol\";\nimport \"contracts/Interface/SchedulerInterface.sol\";\n\nimport \"contracts/Library/PaymentLib.sol\";\nimport \"contracts/Library/RequestLib.sol\";\nimport \"contracts/Library/RequestScheduleLib.sol\";\n\n/**\n * @title BaseScheduler\n * @dev The foundational contract which provides the API for scheduling future transactions on the Alarm Client.\n */\ncontract BaseScheduler is SchedulerInterface {\n    // The RequestFactory which produces requests for this scheduler.\n    address public factoryAddress;\n\n    // The TemporalUnit (Block or Timestamp) for this scheduler.\n    RequestScheduleLib.TemporalUnit public temporalUnit;\n\n    // The address which will be sent the fee payments.\n    address public feeRecipient;\n\n    /*\n     * @dev Fallback function to be able to receive ether. This can occur\n     *  legitimately when scheduling fails due to a validation error.\n     */\n    function() public payable {}\n\n    /// Event that bubbles up the address of new requests made with this scheduler.\n    event NewRequest(address request);\n\n    /**\n     * @dev Schedules a new TransactionRequest using the 'full' parameters.\n     * @param _toAddress The address destination of the transaction.\n     * @param _callData The bytecode that will be included with the transaction.\n     * @param _uintArgs [0] The callGas of the transaction.\n     * @param _uintArgs [1] The value of ether to be sent with the transaction.\n     * @param _uintArgs [2] The size of the execution window of the transaction.\n     * @param _uintArgs [3] The (block or timestamp) of when the execution window starts.\n     * @param _uintArgs [4] The gasPrice which will be used to execute this transaction.\n     * @param _uintArgs [5] The fee attached to this transaction.\n     * @param _uintArgs [6] The bounty attached to this transaction.\n     * @param _uintArgs [7] The deposit required to claim this transaction.\n     * @return The address of the new TransactionRequest.   \n     */ \n    function schedule (\n        address   _toAddress,\n        bytes     _callData,\n        uint[8]   _uintArgs\n    )\n        public payable returns (address newRequest)\n    {\n        RequestFactoryInterface factory = RequestFactoryInterface(factoryAddress);\n\n        uint endowment = computeEndowment(\n            _uintArgs[6], //bounty\n            _uintArgs[5], //fee\n            _uintArgs[0], //callGas\n            _uintArgs[1], //callValue\n            _uintArgs[4]  //gasPrice\n        );\n\n        require(msg.value >= endowment);\n\n        if (temporalUnit == RequestScheduleLib.TemporalUnit.Blocks) {\n            newRequest = factory.createValidatedRequest.value(msg.value)(\n                [\n                    msg.sender,                 // meta.owner\n                    feeRecipient,               // paymentData.feeRecipient\n                    _toAddress                  // txnData.toAddress\n                ],\n                [\n                    _uintArgs[5],               // paymentData.fee\n                    _uintArgs[6],               // paymentData.bounty\n                    255,                        // scheduler.claimWindowSize\n                    10,                         // scheduler.freezePeriod\n                    16,                         // scheduler.reservedWindowSize\n                    uint(temporalUnit),         // scheduler.temporalUnit (1: block, 2: timestamp)\n                    _uintArgs[2],               // scheduler.windowSize\n                    _uintArgs[3],               // scheduler.windowStart\n                    _uintArgs[0],               // txnData.callGas\n                    _uintArgs[1],               // txnData.callValue\n                    _uintArgs[4],               // txnData.gasPrice\n                    _uintArgs[7]                // claimData.requiredDeposit\n                ],\n                _callData\n            );\n        } else if (temporalUnit == RequestScheduleLib.TemporalUnit.Timestamp) {\n            newRequest = factory.createValidatedRequest.value(msg.value)(\n                [\n                    msg.sender,                 // meta.owner\n                    feeRecipient,               // paymentData.feeRecipient\n                    _toAddress                  // txnData.toAddress\n                ],\n                [\n                    _uintArgs[5],               // paymentData.fee\n                    _uintArgs[6],               // paymentData.bounty\n                    60 minutes,                 // scheduler.claimWindowSize\n                    3 minutes,                  // scheduler.freezePeriod\n                    5 minutes,                  // scheduler.reservedWindowSize\n                    uint(temporalUnit),         // scheduler.temporalUnit (1: block, 2: timestamp)\n                    _uintArgs[2],               // scheduler.windowSize\n                    _uintArgs[3],               // scheduler.windowStart\n                    _uintArgs[0],               // txnData.callGas\n                    _uintArgs[1],               // txnData.callValue\n                    _uintArgs[4],               // txnData.gasPrice\n                    _uintArgs[7]                // claimData.requiredDeposit\n                ],\n                _callData\n            );\n        } else {\n            // unsupported temporal unit\n            revert();\n        }\n\n        require(newRequest != 0x0);\n        emit NewRequest(newRequest);\n        return newRequest;\n    }\n\n    function computeEndowment(\n        uint _bounty,\n        uint _fee,\n        uint _callGas,\n        uint _callValue,\n        uint _gasPrice\n    )\n        public pure returns (uint)\n    {\n        return PaymentLib.computeEndowment(\n            _bounty,\n            _fee,\n            _callGas,\n            _callValue,\n            _gasPrice,\n            RequestLib.EXECUTION_GAS_OVERHEAD()\n        );\n    }\n}\n",
  "sourcePath": "contracts/Scheduler/BaseScheduler.sol",
  "compiler": {
    "name": "solc",
    "version": "0.4.21+commit.dfe3193c.Emscripten.clang"
  },
  "schemaVersion": "2.0.0",
  "updatedAt": "2018-04-13T14:06:33.106Z"
}