{
  "contractName": "IterTools",
  "abi": [
    {
      "constant": true,
      "inputs": [
        {
          "name": "_values",
          "type": "bool[6]"
        }
      ],
      "name": "all",
      "outputs": [
        {
          "name": "",
          "type": "bool"
        }
      ],
      "payable": false,
      "stateMutability": "pure",
      "type": "function"
    }
  ],
  "bytecode": "0x61011e610030600b82828239805160001a6073146000811461002057610022565bfe5b5030600052607381538281f30073000000000000000000000000000000000000000030146060604052600436106056576000357c0100000000000000000000000000000000000000000000000000000000900463ffffffff1680635fa77dac14605b575b600080fd5b60926004808060c00190600680602002604051908101604052809291908260066020028082843782019150505050509190505060ac565b604051808215151515815260200191505060405180910390f35b600080600090505b600681101560e757828160068110151560c957fe5b6020020151151560db576000915060ec565b808060010191505060b4565b600191505b509190505600a165627a7a72305820a275733977843da20a1536a0e979bc6715d691370feeeee843069b3da442f54e0029",
  "source": "pragma solidity ^0.4.21;\n\n/**\n * @title IterTools\n * @dev Utility library that iterates through a boolean array of length 6.\n */\nlibrary IterTools {\n    /*\n     * @dev Return true if all of the values in the boolean array are true.\n     * @param _values A boolean array of length 6.\n     * @return True if all values are true, False if _any_ are false.\n     */\n    function all(bool[6] _values) \n        public pure returns (bool)\n    {\n        for (uint i = 0; i < _values.length; i++) {\n            if (!_values[i]) {\n                return false;\n            }\n        }\n        return true;\n    }\n}\n",
  "sourcePath": "contracts/IterTools.sol",
  "compiler": {
    "name": "solc",
    "version": "0.4.21+commit.dfe3193c.Emscripten.clang"
  },
  "schemaVersion": "2.0.0",
  "updatedAt": "2018-04-13T14:06:33.113Z"
}