{
  "contractName": "Proxy",
  "abi": [
    {
      "constant": true,
      "inputs": [],
      "name": "owner",
      "outputs": [
        {
          "name": "",
          "type": "address"
        }
      ],
      "payable": false,
      "stateMutability": "view",
      "type": "function"
    },
    {
      "constant": true,
      "inputs": [],
      "name": "scheduler",
      "outputs": [
        {
          "name": "",
          "type": "address"
        }
      ],
      "payable": false,
      "stateMutability": "view",
      "type": "function"
    },
    {
      "constant": true,
      "inputs": [],
      "name": "scheduledTransaction",
      "outputs": [
        {
          "name": "",
          "type": "address"
        }
      ],
      "payable": false,
      "stateMutability": "view",
      "type": "function"
    },
    {
      "constant": true,
      "inputs": [],
      "name": "receipient",
      "outputs": [
        {
          "name": "",
          "type": "address"
        }
      ],
      "payable": false,
      "stateMutability": "view",
      "type": "function"
    },
    {
      "inputs": [
        {
          "name": "_scheduler",
          "type": "address"
        },
        {
          "name": "_receipient",
          "type": "address"
        },
        {
          "name": "_payout",
          "type": "uint256"
        },
        {
          "name": "_gasPrice",
          "type": "uint256"
        },
        {
          "name": "_delay",
          "type": "uint256"
        }
      ],
      "payable": true,
      "stateMutability": "payable",
      "type": "constructor"
    },
    {
      "payable": true,
      "stateMutability": "payable",
      "type": "fallback"
    },
    {
      "constant": false,
      "inputs": [
        {
          "name": "_receipient",
          "type": "address"
        }
      ],
      "name": "sendOwnerEther",
      "outputs": [],
      "payable": false,
      "stateMutability": "nonpayable",
      "type": "function"
    }
  ],
  "bytecode": "0x606060405260405160a08061071183398101604052808051906020019091908051906020019091908051906020019091908051906020019091908051906020019091905050846000806101000a81548173ffffffffffffffffffffffffffffffffffffffff021916908373ffffffffffffffffffffffffffffffffffffffff16021790555083600160006101000a81548173ffffffffffffffffffffffffffffffffffffffff021916908373ffffffffffffffffffffffffffffffffffffffff16021790555033600360006101000a81548173ffffffffffffffffffffffffffffffffffffffff021916908373ffffffffffffffffffffffffffffffffffffffff1602179055506000809054906101000a900473ffffffffffffffffffffffffffffffffffffffff1673ffffffffffffffffffffffffffffffffffffffff16630801b654343061010060405190810160405280621e8480815260200188815260200160ff81526020018643018152602001878152602001613039815260200162036cc78152602001614e208152506040518463ffffffff167c0100000000000000000000000000000000000000000000000000000000028152600401808373ffffffffffffffffffffffffffffffffffffffff1673ffffffffffffffffffffffffffffffffffffffff1681526020018060200183600860200280838360005b838110156102195780820151818401526020810190506101fe565b5050505090500182810382526000815260200160200193505050506020604051808303818588803b151561024c57600080fd5b5af1151561025957600080fd5b5050505060405180519050600260006101000a81548173ffffffffffffffffffffffffffffffffffffffff021916908373ffffffffffffffffffffffffffffffffffffffff1602179055505050505050610459806102b86000396000f30060606040526004361061006d576000357c0100000000000000000000000000000000000000000000000000000000900463ffffffff1680633e50b0b8146100db5780638da5cb5b14610114578063d1ad17bf14610169578063ee177f4a146101be578063ff5d80f214610213575b60003411156100d957600160009054906101000a900473ffffffffffffffffffffffffffffffffffffffff1673ffffffffffffffffffffffffffffffffffffffff166108fc349081150290604051600060405180830381858888f1935050505015156100d857600080fd5b5b005b34156100e657600080fd5b610112600480803573ffffffffffffffffffffffffffffffffffffffff16906020019091905050610268565b005b341561011f57600080fd5b610127610396565b604051808273ffffffffffffffffffffffffffffffffffffffff1673ffffffffffffffffffffffffffffffffffffffff16815260200191505060405180910390f35b341561017457600080fd5b61017c6103bc565b604051808273ffffffffffffffffffffffffffffffffffffffff1673ffffffffffffffffffffffffffffffffffffffff16815260200191505060405180910390f35b34156101c957600080fd5b6101d16103e1565b604051808273ffffffffffffffffffffffffffffffffffffffff1673ffffffffffffffffffffffffffffffffffffffff16815260200191505060405180910390f35b341561021e57600080fd5b610226610407565b604051808273ffffffffffffffffffffffffffffffffffffffff1673ffffffffffffffffffffffffffffffffffffffff16815260200191505060405180910390f35b600360009054906101000a900473ffffffffffffffffffffffffffffffffffffffff1673ffffffffffffffffffffffffffffffffffffffff163373ffffffffffffffffffffffffffffffffffffffff16141561039357600260009054906101000a900473ffffffffffffffffffffffffffffffffffffffff1673ffffffffffffffffffffffffffffffffffffffff16633e50b0b8826040518263ffffffff167c0100000000000000000000000000000000000000000000000000000000028152600401808273ffffffffffffffffffffffffffffffffffffffff1673ffffffffffffffffffffffffffffffffffffffff168152602001915050602060405180830381600087803b151561037a57600080fd5b5af1151561038757600080fd5b50505060405180519050505b50565b600360009054906101000a900473ffffffffffffffffffffffffffffffffffffffff1681565b6000809054906101000a900473ffffffffffffffffffffffffffffffffffffffff1681565b600260009054906101000a900473ffffffffffffffffffffffffffffffffffffffff1681565b600160009054906101000a900473ffffffffffffffffffffffffffffffffffffffff16815600a165627a7a723058201f5148322d1bae77cf44605bf70cc9a19e7db94b4fc989a742a06d5a1f79f2030029",
  "source": "pragma solidity ^0.4.21;\n\nimport \"contracts/Interface/SchedulerInterface.sol\";\nimport \"contracts/Interface/TransactionRequestInterface.sol\";\n\ncontract Proxy {\n    SchedulerInterface public scheduler;\n    address public receipient; \n    address public scheduledTransaction;\n    address public owner;\n\n    function Proxy(address _scheduler, address _receipient, uint _payout, uint _gasPrice, uint _delay) public payable {\n        scheduler = SchedulerInterface(_scheduler);\n        receipient = _receipient;\n        owner = msg.sender;\n\n        scheduledTransaction = scheduler.schedule.value(msg.value)(\n            this,              // toAddress\n            \"\",                     // callData\n            [\n                2000000,            // The amount of gas to be sent with the transaction.\n                _payout,                  // The amount of wei to be sent.\n                255,                // The size of the execution window.\n                block.number + _delay,        // The start of the execution window.\n                _gasPrice,    // The gasprice for the transaction\n                12345 wei,          // The fee included in the transaction.\n                224455 wei,         // The bounty that awards the executor of the transaction.\n                20000 wei           // The required amount of wei the claimer must send as deposit.\n            ]\n        );\n    }\n\n    function () public payable {\n        if (msg.value > 0) {\n            receipient.transfer(msg.value);\n        }\n    }\n\n    function sendOwnerEther(address _receipient) public {\n        if (msg.sender == owner) {\n            TransactionRequestInterface(scheduledTransaction).sendOwnerEther(_receipient);\n        }   \n    }\n}",
  "sourcePath": "/home/logan/Work/ethereum-alarm-clock/contracts/_test/Proxy.sol",
  "compiler": {
    "name": "solc",
    "version": "0.4.21+commit.dfe3193c.Emscripten.clang"
  },
  "schemaVersion": "2.0.0",
  "updatedAt": "2018-04-13T14:04:52.800Z"
}