{
  "contractName": "TransactionRecorder",
  "abi": [
    {
      "constant": true,
      "inputs": [],
      "name": "lastCaller",
      "outputs": [
        {
          "name": "",
          "type": "address"
        }
      ],
      "payable": false,
      "stateMutability": "view",
      "type": "function"
    },
    {
      "constant": true,
      "inputs": [],
      "name": "lastCallGas",
      "outputs": [
        {
          "name": "",
          "type": "uint256"
        }
      ],
      "payable": false,
      "stateMutability": "view",
      "type": "function"
    },
    {
      "constant": true,
      "inputs": [],
      "name": "lastCallData",
      "outputs": [
        {
          "name": "",
          "type": "bytes"
        }
      ],
      "payable": false,
      "stateMutability": "view",
      "type": "function"
    },
    {
      "constant": true,
      "inputs": [],
      "name": "wasCalled",
      "outputs": [
        {
          "name": "",
          "type": "bool"
        }
      ],
      "payable": false,
      "stateMutability": "view",
      "type": "function"
    },
    {
      "constant": true,
      "inputs": [],
      "name": "lastCallValue",
      "outputs": [
        {
          "name": "",
          "type": "uint256"
        }
      ],
      "payable": false,
      "stateMutability": "view",
      "type": "function"
    },
    {
      "inputs": [],
      "payable": false,
      "stateMutability": "nonpayable",
      "type": "constructor"
    },
    {
      "payable": true,
      "stateMutability": "payable",
      "type": "fallback"
    },
    {
      "constant": false,
      "inputs": [],
      "name": "__reset__",
      "outputs": [],
      "payable": false,
      "stateMutability": "nonpayable",
      "type": "function"
    },
    {
      "constant": false,
      "inputs": [],
      "name": "kill",
      "outputs": [],
      "payable": false,
      "stateMutability": "nonpayable",
      "type": "function"
    }
  ],
  "bytecode": "0x606060405260206040519081016040528060008152506003908051906020019061002a92919061007b565b50341561003657600080fd5b336000806101000a81548173ffffffffffffffffffffffffffffffffffffffff021916908373ffffffffffffffffffffffffffffffffffffffff160217905550610120565b828054600181600116156101000203166002900490600052602060002090601f016020900481019282601f106100bc57805160ff19168380011785556100ea565b828001600101855582156100ea579182015b828111156100e95782518255916020019190600101906100ce565b5b5090506100f791906100fb565b5090565b61011d91905b80821115610119576000816000905550600101610101565b5090565b90565b6105ec8061012f6000396000f300606060405260043610610083576000357c0100000000000000000000000000000000000000000000000000000000900463ffffffff1680632113522a146101025780632b589b281461015757806341c0e1b51461018057806372a853b1146101955780637cbcc25414610223578063c680362214610238578063f87af02314610265575b5a6004819055506000366003919061009c92919061049b565b5033600260006101000a81548173ffffffffffffffffffffffffffffffffffffffff021916908373ffffffffffffffffffffffffffffffffffffffff160217905550346001819055506001600060146101000a81548160ff021916908315150217905550005b341561010d57600080fd5b61011561028e565b604051808273ffffffffffffffffffffffffffffffffffffffff1673ffffffffffffffffffffffffffffffffffffffff16815260200191505060405180910390f35b341561016257600080fd5b61016a6102b4565b6040518082815260200191505060405180910390f35b341561018b57600080fd5b6101936102ba565b005b34156101a057600080fd5b6101a861034f565b6040518080602001828103825283818151815260200191508051906020019080838360005b838110156101e85780820151818401526020810190506101cd565b50505050905090810190601f1680156102155780820380516001836020036101000a031916815260200191505b509250505060405180910390f35b341561022e57600080fd5b6102366103ed565b005b341561024357600080fd5b61024b610482565b604051808215151515815260200191505060405180910390f35b341561027057600080fd5b610278610495565b6040518082815260200191505060405180910390f35b600260009054906101000a900473ffffffffffffffffffffffffffffffffffffffff1681565b60045481565b6000809054906101000a900473ffffffffffffffffffffffffffffffffffffffff1673ffffffffffffffffffffffffffffffffffffffff163373ffffffffffffffffffffffffffffffffffffffff1614151561031557600080fd5b6000809054906101000a900473ffffffffffffffffffffffffffffffffffffffff1673ffffffffffffffffffffffffffffffffffffffff16ff5b60038054600181600116156101000203166002900480601f0160208091040260200160405190810160405280929190818152602001828054600181600116156101000203166002900480156103e55780601f106103ba576101008083540402835291602001916103e5565b820191906000526020600020905b8154815290600101906020018083116103c857829003601f168201915b505050505081565b600060048190555060206040519081016040528060008152506003908051906020019061041b92919061051b565b506000600260006101000a81548173ffffffffffffffffffffffffffffffffffffffff021916908373ffffffffffffffffffffffffffffffffffffffff160217905550600060018190555060008060146101000a81548160ff021916908315150217905550565b600060149054906101000a900460ff1681565b60015481565b828054600181600116156101000203166002900490600052602060002090601f016020900481019282601f106104dc57803560ff191683800117855561050a565b8280016001018555821561050a579182015b828111156105095782358255916020019190600101906104ee565b5b509050610517919061059b565b5090565b828054600181600116156101000203166002900490600052602060002090601f016020900481019282601f1061055c57805160ff191683800117855561058a565b8280016001018555821561058a579182015b8281111561058957825182559160200191906001019061056e565b5b509050610597919061059b565b5090565b6105bd91905b808211156105b95760008160009055506001016105a1565b5090565b905600a165627a7a7230582066d48fb91a786acf8750de8751eff2b99e89555ad511cecc2266a9523c10bfb70029",
  "source": "pragma solidity ^0.4.21;\n\ncontract TransactionRecorder {\n    address owner;\n\n    bool public wasCalled;\n    uint public lastCallValue;\n    address public lastCaller;\n    bytes public lastCallData = \"\";\n    uint public lastCallGas;\n\n    function TransactionRecorder()  public {\n        owner = msg.sender;\n    }\n\n    function() payable  public {\n        lastCallGas = gasleft();\n        lastCallData = msg.data;\n        lastCaller = msg.sender;\n        lastCallValue = msg.value;\n        wasCalled = true;\n    }\n\n    function __reset__() public {\n        lastCallGas = 0;\n        lastCallData = \"\";\n        lastCaller = 0x0;\n        lastCallValue = 0;\n        wasCalled = false;\n    }\n\n    function kill() public {\n        require(msg.sender == owner);\n        selfdestruct(owner);\n    }\n}\n",
  "sourcePath": "/home/logan/Work/ethereum-alarm-clock/contracts/_test/TransactionRecorder.sol",
  "compiler": {
    "name": "solc",
    "version": "0.4.21+commit.dfe3193c.Emscripten.clang"
  },
  "schemaVersion": "2.0.0",
  "updatedAt": "2018-04-13T14:06:33.161Z"
}