{
  "contractName": "TransactionRequestCore",
  "abi": [
    {
      "payable": true,
      "stateMutability": "payable",
      "type": "fallback"
    },
    {
      "constant": false,
      "inputs": [
        {
          "name": "addressArgs",
          "type": "address[4]"
        },
        {
          "name": "uintArgs",
          "type": "uint256[12]"
        },
        {
          "name": "callData",
          "type": "bytes"
        }
      ],
      "name": "initialize",
      "outputs": [],
      "payable": true,
      "stateMutability": "payable",
      "type": "function"
    },
    {
      "constant": false,
      "inputs": [],
      "name": "execute",
      "outputs": [
        {
          "name": "",
          "type": "bool"
        }
      ],
      "payable": false,
      "stateMutability": "nonpayable",
      "type": "function"
    },
    {
      "constant": false,
      "inputs": [],
      "name": "cancel",
      "outputs": [
        {
          "name": "",
          "type": "bool"
        }
      ],
      "payable": false,
      "stateMutability": "nonpayable",
      "type": "function"
    },
    {
      "constant": false,
      "inputs": [],
      "name": "claim",
      "outputs": [
        {
          "name": "",
          "type": "bool"
        }
      ],
      "payable": true,
      "stateMutability": "payable",
      "type": "function"
    },
    {
      "constant": true,
      "inputs": [],
      "name": "requestData",
      "outputs": [
        {
          "name": "",
          "type": "address[6]"
        },
        {
          "name": "",
          "type": "bool[3]"
        },
        {
          "name": "",
          "type": "uint256[15]"
        },
        {
          "name": "",
          "type": "uint8[1]"
        }
      ],
      "payable": false,
      "stateMutability": "view",
      "type": "function"
    },
    {
      "constant": true,
      "inputs": [],
      "name": "callData",
      "outputs": [
        {
          "name": "data",
          "type": "bytes"
        }
      ],
      "payable": false,
      "stateMutability": "view",
      "type": "function"
    },
    {
      "constant": false,
      "inputs": [
        {
          "name": "_to",
          "type": "address"
        },
        {
          "name": "_data",
          "type": "bytes"
        }
      ],
      "name": "proxy",
      "outputs": [
        {
          "name": "success",
          "type": "bool"
        }
      ],
      "payable": true,
      "stateMutability": "payable",
      "type": "function"
    },
    {
      "constant": false,
      "inputs": [],
      "name": "refundClaimDeposit",
      "outputs": [
        {
          "name": "",
          "type": "bool"
        }
      ],
      "payable": false,
      "stateMutability": "nonpayable",
      "type": "function"
    },
    {
      "constant": false,
      "inputs": [],
      "name": "sendFee",
      "outputs": [
        {
          "name": "",
          "type": "bool"
        }
      ],
      "payable": false,
      "stateMutability": "nonpayable",
      "type": "function"
    },
    {
      "constant": false,
      "inputs": [],
      "name": "sendBounty",
      "outputs": [
        {
          "name": "",
          "type": "bool"
        }
      ],
      "payable": false,
      "stateMutability": "nonpayable",
      "type": "function"
    },
    {
      "constant": false,
      "inputs": [
        {
          "name": "recipient",
          "type": "address"
        }
      ],
      "name": "sendOwnerEther",
      "outputs": [
        {
          "name": "",
          "type": "bool"
        }
      ],
      "payable": false,
      "stateMutability": "nonpayable",
      "type": "function"
    },
    {
      "constant": false,
      "inputs": [],
      "name": "sendOwnerEther",
      "outputs": [
        {
          "name": "",
          "type": "bool"
        }
      ],
      "payable": false,
      "stateMutability": "nonpayable",
      "type": "function"
    }
  ],
  "bytecode": "0x6060604052341561000f57600080fd5b6122278061001e6000396000f3006060604052600436106100ba576000357c0100000000000000000000000000000000000000000000000000000000900463ffffffff1680633e50b0b8146100bc5780634bb89c4d1461010d5780634e417a981461013a5780634e71d92d146101c8578063606deecd146101ea57806361461954146102c85780636949a058146102f5578063820e852214610322578063ae39279f146103cd578063b311ee0c146103fa578063be6d055a14610427578063ea8a1af0146104b0575b005b34156100c757600080fd5b6100f3600480803573ffffffffffffffffffffffffffffffffffffffff169060200190919050506104dd565b604051808215151515815260200191505060405180910390f35b341561011857600080fd5b61012061059d565b604051808215151515815260200191505060405180910390f35b341561014557600080fd5b61014d610627565b6040518080602001828103825283818151815260200191508051906020019080838360005b8381101561018d578082015181840152602081019050610172565b50505050905090810190601f1680156101ba5780820380516001836020036101000a031916815260200191505b509250505060405180910390f35b6101d06106d4565b604051808215151515815260200191505060405180910390f35b34156101f557600080fd5b6101fd6106e5565b6040518085600660200280838360005b8381101561022857808201518184015260208101905061020d565b5050505090500184600360200280838360005b8381101561025657808201518184015260208101905061023b565b5050505090500183600f60200280838360005b83811015610284578082015181840152602081019050610269565b5050505090500182600160200280838360005b838110156102b2578082015181840152602081019050610297565b5050505090500194505050505060405180910390f35b34156102d357600080fd5b6102db6108c9565b604051808215151515815260200191505060405180910390f35b341561030057600080fd5b6103086108da565b604051808215151515815260200191505060405180910390f35b6103cb6004808060800190600480602002604051908101604052809291908260046020028082843782019150505050509190806101800190600c806020026040519081016040528092919082600c6020028082843782019150505050509190803590602001908201803590602001908080601f01602080910402602001604051908101604052809392919081815260200183838082843782019150505050505091905050610964565b005b34156103d857600080fd5b6103e0610abb565b604051808215151515815260200191505060405180910390f35b341561040557600080fd5b61040d610b45565b604051808215151515815260200191505060405180910390f35b610496600480803573ffffffffffffffffffffffffffffffffffffffff1690602001909190803590602001908201803590602001908080601f01602080910402602001604051908101604052809392919081815260200183838082843782019150505050505091905050610bce565b604051808215151515815260200191505060405180910390f35b34156104bb57600080fd5b6104c3610cd7565b604051808215151515815260200191505060405180910390f35b60008073__RequestLib____________________________63d81b530c9091846040518363ffffffff167c0100000000000000000000000000000000000000000000000000000000028152600401808381526020018273ffffffffffffffffffffffffffffffffffffffff1673ffffffffffffffffffffffffffffffffffffffff1681526020019250505060206040518083038186803b151561057f57600080fd5b5af4151561058c57600080fd5b505050604051805190509050919050565b60008073__RequestLib____________________________63ab3b2e8190916040518263ffffffff167c01000000000000000000000000000000000000000000000000000000000281526004018082815260200191505060206040518083038186803b151561060b57600080fd5b5af4151561061857600080fd5b50505060405180519050905090565b61062f61212b565b600080016001018054600181600116156101000203166002900480601f0160208091040260200160405190810160405280929190818152602001828054600181600116156101000203166002900480156106ca5780601f1061069f576101008083540402835291602001916106ca565b820191906000526020600020905b8154815290600101906020018083116106ad57829003601f168201915b5050505050905090565b60006106e06000610d61565b905090565b6106ed61213f565b6106f561217d565b6106fd6121a7565b6107056121d0565b61070f6000610dce565b156108be576000601701600001600060170160060160006017016007016000601701601601836006806020026040519081016040528092919082600680156107a2576020028201915b8160009054906101000a900473ffffffffffffffffffffffffffffffffffffffff1673ffffffffffffffffffffffffffffffffffffffff1681526020019060010190808311610758575b5050505050935082600380602002604051908101604052809291908260038015610806576020028201916000905b82829054906101000a900460ff161515815260200190600101906020826000010492830192600103820291508084116107d05790505b5050505050925081600f806020026040519081016040528092919082600f8015610845576020028201915b815481526020019060010190808311610831575b50505050509150806001806020026040519081016040528092919082600180156108aa576020028201916000905b82829054906101000a900460ff1660ff16815260200190600101906020826000010492830192600103820291508084116108735790505b5050505050905093509350935093506108c3565b600080fd5b90919293565b60006108d560006113fc565b905090565b60008073__RequestLib____________________________634074b91c90916040518263ffffffff167c01000000000000000000000000000000000000000000000000000000000281526004018082815260200191505060206040518083038186803b151561094857600080fd5b5af4151561095557600080fd5b50505060405180519050905090565b600073__RequestLib____________________________638c5bebf290918585856040518563ffffffff167c01000000000000000000000000000000000000000000000000000000000281526004018085815260200184600460200280838360005b838110156109e15780820151818401526020810190506109c6565b5050505090500183600c60200280838360005b83811015610a0f5780820151818401526020810190506109f4565b5050505090500180602001828103825283818151815260200191508051906020019080838360005b83811015610a52578082015181840152602081019050610a37565b50505050905090810190601f168015610a7f5780820380516001836020036101000a031916815260200191505b509550505050505060206040518083038186803b1515610a9e57600080fd5b5af41515610aab57600080fd5b5050506040518051905050505050565b60008073__RequestLib____________________________63f925a7d690916040518263ffffffff167c01000000000000000000000000000000000000000000000000000000000281526004018082815260200191505060206040518083038186803b1515610b2957600080fd5b5af41515610b3657600080fd5b50505060405180519050905090565b60008073__RequestLib____________________________637994549a90916040518263ffffffff167c01000000000000000000000000000000000000000000000000000000000281526004018082815260200191505060206040518083038186803b1515610bb357600080fd5b5af41515610bc057600080fd5b505050604051805190505090565b60003373ffffffffffffffffffffffffffffffffffffffff16600060050160000160009054906101000a900473ffffffffffffffffffffffffffffffffffffffff1673ffffffffffffffffffffffffffffffffffffffff16148015610c3c5750610c3b6000601101611a02565b5b1515610c4757600080fd5b8273ffffffffffffffffffffffffffffffffffffffff16348360405180828051906020019080838360005b83811015610c8d578082015181840152602081019050610c72565b50505050905090810190601f168015610cba5780820380516001836020036101000a031916815260200191505b5091505060006040518083038185875af192505050905092915050565b60008073__RequestLib____________________________6332839d9890916040518263ffffffff167c01000000000000000000000000000000000000000000000000000000000281526004018082815260200191505060206040518083038186803b1515610d4557600080fd5b5af41515610d5257600080fd5b50505060405180519050905090565b6000610d6c82611a1e565b1515610d7757600080fd5b610d98610d8683601101611a8f565b83600d01611af690919063ffffffff16565b507fbcb472984264b16baa8cde752f2af002ea8ce06f35d81caee36625234edd2a4660405160405180910390a160019050919050565b600081600d0160000160009054906101000a900473ffffffffffffffffffffffffffffffffffffffff16826017016000016000600681101515610e0d57fe5b0160006101000a81548173ffffffffffffffffffffffffffffffffffffffff021916908373ffffffffffffffffffffffffffffffffffffffff1602179055508160050160010160009054906101000a900473ffffffffffffffffffffffffffffffffffffffff16826017016000016001600681101515610e8957fe5b0160006101000a81548173ffffffffffffffffffffffffffffffffffffffff021916908373ffffffffffffffffffffffffffffffffffffffff1602179055508160050160000160009054906101000a900473ffffffffffffffffffffffffffffffffffffffff16826017016000016002600681101515610f0557fe5b0160006101000a81548173ffffffffffffffffffffffffffffffffffffffff021916908373ffffffffffffffffffffffffffffffffffffffff1602179055508160070160040160009054906101000a900473ffffffffffffffffffffffffffffffffffffffff16826017016000016003600681101515610f8157fe5b0160006101000a81548173ffffffffffffffffffffffffffffffffffffffff021916908373ffffffffffffffffffffffffffffffffffffffff1602179055508160070160010160009054906101000a900473ffffffffffffffffffffffffffffffffffffffff16826017016000016004600681101515610ffd57fe5b0160006101000a81548173ffffffffffffffffffffffffffffffffffffffff021916908373ffffffffffffffffffffffffffffffffffffffff1602179055508160000160000160009054906101000a900473ffffffffffffffffffffffffffffffffffffffff1682601701600001600560068110151561107957fe5b0160006101000a81548173ffffffffffffffffffffffffffffffffffffffff021916908373ffffffffffffffffffffffffffffffffffffffff1602179055508160050160010160149054906101000a900460ff168260170160060160006003811015156110e257fe5b602091828204019190066101000a81548160ff0219169083151502179055508160050160010160159054906101000a900460ff1682601701600601600160038110151561112b57fe5b602091828204019190066101000a81548160ff0219169083151502179055508160050160010160169054906101000a900460ff1682601701600601600260038110151561117457fe5b602091828204019190066101000a81548160ff02191690831515021790555081600d0160010154826017016007016000600f811015156111b057fe5b01819055508160070160030154826017016007016001600f811015156111d257fe5b01819055508160070160050154826017016007016002600f811015156111f457fe5b01819055508160070160000154826017016007016003600f8110151561121657fe5b01819055508160070160020154826017016007016004600f8110151561123857fe5b01819055508160110160050154826017016007016005600f8110151561125a57fe5b01819055508160110160030154826017016007016006600f8110151561127c57fe5b01819055508160110160040154826017016007016007600f8110151561129e57fe5b01819055508160110160000160009054906101000a900460ff1660028111156112c357fe5b826017016007016008600f811015156112d857fe5b01819055508160110160020154826017016007016009600f811015156112fa57fe5b0181905550816011016001015482601701600701600a600f8110151561131c57fe5b0181905550816000016003015482601701600701600b600f8110151561133e57fe5b0181905550816000016002015482601701600701600c600f8110151561136057fe5b0181905550816000016004015482601701600701600d600f8110151561138257fe5b018190555081600d016002015482601701600701600e600f811015156113a457fe5b018190555081600d0160030160009054906101000a900460ff168260170160160160006001811015156113d357fe5b602091828204019190066101000a81548160ff021916908360ff16021790555060019050919050565b6000806000805a92506114226161a861141487611b67565b611b8d90919063ffffffff16565b5a101561147b577fc008bc849b42227c61d5063a1313ce509a6e99211bfd59e827e417be6c65c81b6005600681111561145757fe5b604051808260ff1660ff16815260200191505060405180910390a1600093506119fa565b8460050160010160159054906101000a900460ff16156114e7577fc008bc849b42227c61d5063a1313ce509a6e99211bfd59e827e417be6c65c81b600160068111156114c357fe5b604051808260ff1660ff16815260200191505060405180910390a1600093506119fa565b8460050160010160149054906101000a900460ff1615611553577fc008bc849b42227c61d5063a1313ce509a6e99211bfd59e827e417be6c65c81b6000600681111561152f57fe5b604051808260ff1660ff16815260200191505060405180910390a1600093506119fa565b61155f85601101611ba9565b156115b6577fc008bc849b42227c61d5063a1313ce509a6e99211bfd59e827e417be6c65c81b6002600681111561159257fe5b604051808260ff1660ff16815260200191505060405180910390a1600093506119fa565b6115c285601101611a02565b15611619577fc008bc849b42227c61d5063a1313ce509a6e99211bfd59e827e417be6c65c81b600360068111156115f557fe5b604051808260ff1660ff16815260200191505060405180910390a1600093506119fa565b61162585600d01611bc1565b8015611684575084600d0160000160009054906101000a900473ffffffffffffffffffffffffffffffffffffffff1673ffffffffffffffffffffffffffffffffffffffff163373ffffffffffffffffffffffffffffffffffffffff1614155b8015611698575061169785601101611c08565b5b156116ef577fc008bc849b42227c61d5063a1313ce509a6e99211bfd59e827e417be6c65c81b600460068111156116cb57fe5b604051808260ff1660ff16815260200191505060405180910390a1600093506119fa565b3a8560000160040154141515611750577fc008bc849b42227c61d5063a1313ce509a6e99211bfd59e827e417be6c65c81b60068081111561172c57fe5b604051808260ff1660ff16815260200191505060405180910390a1600093506119fa565b60018560050160010160156101000a81548160ff02191690831515021790555061177c85600001611c3c565b8560050160010160166101000a81548160ff0219169083151502179055506117a685600701611d1d565b156117dc576117d085600701600501546117c287600701611d64565b611d7290919063ffffffff16565b85600701600501819055505b846007016005015491506117f285600701611d93565b50338560070160010160006101000a81548173ffffffffffffffffffffffffffffffffffffffff021916908373ffffffffffffffffffffffffffffffffffffffff16021790555061184585600d01611bc1565b156118d65761186b856007016002015486600d0160010154611d7290919063ffffffff16565b8560070160020181905550600085600d01600101819055506118c685600701600201546118b887600d0160030160009054906101000a900460ff1688600701611e1b90919063ffffffff16565b611d7290919063ffffffff16565b8560070160020181905550611907565b6118fb85600701600201546118ed87600701611e56565b611d7290919063ffffffff16565b85600701600201819055505b61192f62015f906119215a86611b8d90919063ffffffff16565b611d7290919063ffffffff16565b905061195d856007016002015461194f3a84611e6490919063ffffffff16565b611d7290919063ffffffff16565b85600701600201819055507f3e504bb8b225ad41f613b0c3c4205cdd752d1615b4d77cd1773417282fcfb5d98560070160020154838360405180848152602001838152602001828152602001935050505060405180910390a16119c285600701611e9a565b506119f4858660050160000160009054906101000a900473ffffffffffffffffffffffffffffffffffffffff16611f22565b50600193505b505050919050565b6000611a0d82611fc8565b611a1683611fec565b119050919050565b6000611a2c82600d01611bc1565b151515611a3857600080fd5b8160050160010160149054906101000a900460ff16151515611a5957600080fd5b611a658260110161200f565b1515611a7057600080fd5b81600d01600201543410151515611a8657600080fd5b60019050919050565b600080611ade8360050154611ad06064611ac2611aab88612047565b611ab489611fec565b611b8d90919063ffffffff16565b611e6490919063ffffffff16565b61206f90919063ffffffff16565b905060648111151515611aed57fe5b80915050919050565b6000338360000160006101000a81548173ffffffffffffffffffffffffffffffffffffffff021916908373ffffffffffffffffffffffffffffffffffffffff160217905550348360010181905550818360030160006101000a81548160ff021916908360ff16021790555092915050565b6000611b866202bf208360000160030154611d7290919063ffffffff16565b9050919050565b6000828211151515611b9e57600080fd5b818303905092915050565b60008160010154611bb983611fec565b109050919050565b6000808260000160009054906101000a900473ffffffffffffffffffffffffffffffffffffffff1673ffffffffffffffffffffffffffffffffffffffff1614159050919050565b6000611c1382611fec565b826001015411158015611c355750611c2a8261208a565b611c3383611fec565b105b9050919050565b60003a8260040154141515611c5057600080fd5b8160000160009054906101000a900473ffffffffffffffffffffffffffffffffffffffff1673ffffffffffffffffffffffffffffffffffffffff168260020154836003015490846001016040518082805460018160011615610100020316600290048015611cff5780601f10611cd457610100808354040283529160200191611cff565b820191906000526020600020905b815481529060010190602001808311611ce257829003601f168201915b5050915050600060405180830381858888f193505050509050919050565b6000808260040160009054906101000a900473ffffffffffffffffffffffffffffffffffffffff1673ffffffffffffffffffffffffffffffffffffffff1614159050919050565b600081600301549050919050565b6000808284019050838110151515611d8957600080fd5b8091505092915050565b600080826005015490506000811115611e1057600083600501819055508260040160009054906101000a900473ffffffffffffffffffffffffffffffffffffffff1673ffffffffffffffffffffffffffffffffffffffff166108fc829081150290604051600060405180830381858888f193505050509150611e15565b600191505b50919050565b6000611e4e6064611e408460ff16611e3287611e56565b611e6490919063ffffffff16565b61206f90919063ffffffff16565b905092915050565b600081600001549050919050565b60008082840290506000841480611e855750828482811515611e8257fe5b04145b1515611e9057600080fd5b8091505092915050565b600080826002015490506000811115611f1757600083600201819055508260010160009054906101000a900473ffffffffffffffffffffffffffffffffffffffff1673ffffffffffffffffffffffffffffffffffffffff166108fc829081150290604051600060405180830381858888f193505050509150611f1c565b600191505b50919050565b600080611f888460070160050154611f7a8660070160020154611f6c88600d01600101543073ffffffffffffffffffffffffffffffffffffffff1631611b8d90919063ffffffff16565b611b8d90919063ffffffff16565b611b8d90919063ffffffff16565b90508273ffffffffffffffffffffffffffffffffffffffff166108fc829081150290604051600060405180830381858888f1935050505091505092915050565b6000611fe582600201548360010154611d7290919063ffffffff16565b9050919050565b60006120088260000160009054906101000a900460ff166120ae565b9050919050565b600061201a82611fec565b61202383612047565b11158015612040575061203582612107565b61203e83611fec565b105b9050919050565b6000612068826005015461205a84612107565b611b8d90919063ffffffff16565b9050919050565b600080828481151561207d57fe5b0490508091505092915050565b60006120a782600401548360010154611d7290919063ffffffff16565b9050919050565b60006002808111156120bc57fe5b8260028111156120c857fe5b14156120d657429050612102565b600160028111156120e357fe5b8260028111156120ef57fe5b14156120fd57439050612102565b600080fd5b919050565b600061212482600301548360010154611b8d90919063ffffffff16565b9050919050565b602060405190810160405280600081525090565b60c0604051908101604052806006905b600073ffffffffffffffffffffffffffffffffffffffff1681526020019060019003908161214f5790505090565b6060604051908101604052806003905b6000151581526020019060019003908161218d5790505090565b6101e060405190810160405280600f905b60008152602001906001900390816121b85790505090565b6020604051908101604052806001905b600060ff168152602001906001900390816121e057905050905600a165627a7a723058208f566056db29ab26d26f1cf80c8314cf8990a84d8e5d8c070e7975c70fc52e570029",
  "source": "pragma solidity ^0.4.21;\n\nimport \"contracts/Library/RequestLib.sol\";\nimport \"contracts/Library/RequestScheduleLib.sol\";\nimport \"contracts/Interface/TransactionRequestInterface.sol\";\n\ncontract TransactionRequestCore is TransactionRequestInterface {\n    using RequestLib for RequestLib.Request;\n    using RequestScheduleLib for RequestScheduleLib.ExecutionWindow;\n\n    RequestLib.Request txnRequest;\n\n    /*\n     *  addressArgs[0] - meta.createdBy\n     *  addressArgs[1] - meta.owner\n     *  addressArgs[2] - paymentData.feeRecipient\n     *  addressArgs[3] - txnData.toAddress\n     *\n     *  uintArgs[0]  - paymentData.fee\n     *  uintArgs[1]  - paymentData.bounty\n     *  uintArgs[2]  - schedule.claimWindowSize\n     *  uintArgs[3]  - schedule.freezePeriod\n     *  uintArgs[4]  - schedule.reservedWindowSize\n     *  uintArgs[5]  - schedule.temporalUnit\n     *  uintArgs[7]  - schedule.executionWindowSize\n     *  uintArgs[6]  - schedule.windowStart\n     *  uintArgs[8]  - txnData.callGas\n     *  uintArgs[9]  - txnData.callValue\n     *  uintArgs[10] - txnData.gasPrice\n     *  uintArgs[11] - claimData.requiredDeposit\n     */\n    function initialize(\n        address[4]  addressArgs,\n        uint[12]    uintArgs,\n        bytes       callData\n    )\n        public payable\n    {\n        txnRequest.initialize(addressArgs, uintArgs, callData);\n    }\n\n    /*\n     *  Allow receiving ether.  This is needed if there is a large increase in\n     *  network gas prices.\n     */\n    function() public payable {}\n\n    /*\n     *  Actions\n     */\n    function execute() public returns (bool) {\n        return txnRequest.execute();\n    }\n\n    function cancel() public returns (bool) {\n        return txnRequest.cancel();\n    }\n\n    function claim() public payable returns (bool) {\n        return txnRequest.claim();\n    }\n\n    /*\n     *  Data accessor functions.\n     */\n\n    // Declaring this function `view`, although it creates a compiler warning, is\n    // necessary to return values from it.\n    function requestData()\n        public view returns (address[6], bool[3], uint[15], uint8[1])\n    {\n        if (txnRequest.serialize()) {\n            return (\n                txnRequest.serializedValues.addressValues,\n                txnRequest.serializedValues.boolValues,\n                txnRequest.serializedValues.uintValues,\n                txnRequest.serializedValues.uint8Values\n            );\n        } else {\n            revert();\n        }\n    }\n\n    function callData()\n        public view returns (bytes data)\n    {\n        data = txnRequest.txnData.callData;\n    }\n\n    /**\n     * @dev Proxy a call from this contract to another contract.\n     * This function is only callable by the scheduler and can only\n     * be called after the execution window ends. One purpose is to\n     * provide a way to transfer assets held by this contract somewhere else.\n     * For example, if this request was used to buy tokens during an ICO,\n     * it would become the owner of the tokens and this function would need\n     * to be called with the encoded data to the token contract to transfer\n     * the assets somewhere else. */\n    function proxy(address _to, bytes _data)\n        public payable returns (bool success)\n    {\n        require(txnRequest.meta.owner == msg.sender && txnRequest.schedule.isAfterWindow());\n        \n        /* solium-disable-next-line */\n        return _to.call.value(msg.value)(_data);\n    }\n\n    /*\n     *  Pull based payment functions.\n     */\n    function refundClaimDeposit() public returns (bool) {\n        txnRequest.refundClaimDeposit();\n    }\n\n    function sendFee() public returns (bool) {\n        return txnRequest.sendFee();\n    }\n\n    function sendBounty() public returns (bool) {\n        return txnRequest.sendBounty();\n    }\n\n    function sendOwnerEther() public returns (bool) {\n        return txnRequest.sendOwnerEther();\n    }\n\n    function sendOwnerEther(address recipient) public returns (bool) {\n        return txnRequest.sendOwnerEther(recipient);\n    }\n}\n",
  "sourcePath": "contracts/TransactionRequestCore.sol",
  "compiler": {
    "name": "solc",
    "version": "0.4.21+commit.dfe3193c.Emscripten.clang"
  },
  "schemaVersion": "2.0.0",
  "updatedAt": "2018-04-13T14:06:33.174Z"
}